{
  "_format": "hh-sol-artifact-1",
  "contractName": "HealthChain",
  "sourceName": "contracts/HealthChain.sol",
  "abi": [
    {
      "inputs": [
        {
          "internalType": "string",
          "name": "id",
          "type": "string"
        },
        {
          "internalType": "string",
          "name": "diseaseName",
          "type": "string"
        },
        {
          "internalType": "address",
          "name": "doctor_address",
          "type": "address"
        }
      ],
      "name": "addDisease",
      "outputs": [],
      "stateMutability": "nonpayable",
      "type": "function"
    },
    {
      "inputs": [
        {
          "internalType": "string",
          "name": "name",
          "type": "string"
        },
        {
          "internalType": "uint8",
          "name": "age",
          "type": "uint8"
        },
        {
          "internalType": "string",
          "name": "gender",
          "type": "string"
        },
        {
          "internalType": "string",
          "name": "hospitalName",
          "type": "string"
        }
      ],
      "name": "addDoctor",
      "outputs": [],
      "stateMutability": "nonpayable",
      "type": "function"
    },
    {
      "inputs": [
        {
          "internalType": "string",
          "name": "name",
          "type": "string"
        },
        {
          "internalType": "uint8",
          "name": "age",
          "type": "uint8"
        },
        {
          "internalType": "string",
          "name": "gender",
          "type": "string"
        }
      ],
      "name": "addPatient",
      "outputs": [],
      "stateMutability": "nonpayable",
      "type": "function"
    },
    {
      "inputs": [
        {
          "internalType": "string",
          "name": "name",
          "type": "string"
        },
        {
          "internalType": "string",
          "name": "url",
          "type": "string"
        },
        {
          "internalType": "string",
          "name": "uploadDate",
          "type": "string"
        },
        {
          "internalType": "string",
          "name": "diseaseId",
          "type": "string"
        }
      ],
      "name": "addRecord",
      "outputs": [],
      "stateMutability": "nonpayable",
      "type": "function"
    },
    {
      "inputs": [],
      "name": "getAllPatients",
      "outputs": [
        {
          "components": [
            {
              "internalType": "string",
              "name": "name",
              "type": "string"
            },
            {
              "internalType": "uint8",
              "name": "age",
              "type": "uint8"
            },
            {
              "internalType": "address",
              "name": "walletAddress",
              "type": "address"
            },
            {
              "internalType": "string",
              "name": "gender",
              "type": "string"
            }
          ],
          "internalType": "struct HealthChain.Patient[]",
          "name": "",
          "type": "tuple[]"
        }
      ],
      "stateMutability": "view",
      "type": "function"
    },
    {
      "inputs": [],
      "name": "getDiseases",
      "outputs": [
        {
          "components": [
            {
              "internalType": "string",
              "name": "id",
              "type": "string"
            },
            {
              "internalType": "string",
              "name": "name",
              "type": "string"
            },
            {
              "components": [
                {
                  "internalType": "string",
                  "name": "name",
                  "type": "string"
                },
                {
                  "internalType": "uint8",
                  "name": "age",
                  "type": "uint8"
                },
                {
                  "internalType": "string",
                  "name": "gender",
                  "type": "string"
                },
                {
                  "internalType": "address",
                  "name": "walletAddress",
                  "type": "address"
                },
                {
                  "internalType": "string",
                  "name": "hospitalName",
                  "type": "string"
                },
                {
                  "internalType": "address[]",
                  "name": "patients",
                  "type": "address[]"
                }
              ],
              "internalType": "struct HealthChain.Doctor",
              "name": "doctor",
              "type": "tuple"
            },
            {
              "internalType": "uint256",
              "name": "createdAt",
              "type": "uint256"
            }
          ],
          "internalType": "struct HealthChain.DiseaseRes[]",
          "name": "",
          "type": "tuple[]"
        }
      ],
      "stateMutability": "view",
      "type": "function"
    },
    {
      "inputs": [],
      "name": "getDoctor",
      "outputs": [
        {
          "components": [
            {
              "internalType": "string",
              "name": "name",
              "type": "string"
            },
            {
              "internalType": "uint8",
              "name": "age",
              "type": "uint8"
            },
            {
              "internalType": "string",
              "name": "gender",
              "type": "string"
            },
            {
              "internalType": "address",
              "name": "walletAddress",
              "type": "address"
            },
            {
              "internalType": "string",
              "name": "hospitalName",
              "type": "string"
            },
            {
              "internalType": "address[]",
              "name": "patients",
              "type": "address[]"
            }
          ],
          "internalType": "struct HealthChain.Doctor",
          "name": "",
          "type": "tuple"
        }
      ],
      "stateMutability": "view",
      "type": "function"
    },
    {
      "inputs": [],
      "name": "getPatient",
      "outputs": [
        {
          "components": [
            {
              "internalType": "string",
              "name": "name",
              "type": "string"
            },
            {
              "internalType": "uint8",
              "name": "age",
              "type": "uint8"
            },
            {
              "internalType": "address",
              "name": "walletAddress",
              "type": "address"
            },
            {
              "internalType": "string",
              "name": "gender",
              "type": "string"
            }
          ],
          "internalType": "struct HealthChain.Patient",
          "name": "",
          "type": "tuple"
        }
      ],
      "stateMutability": "view",
      "type": "function"
    },
    {
      "inputs": [
        {
          "internalType": "address",
          "name": "patient_address",
          "type": "address"
        }
      ],
      "name": "getPatientsDiseases",
      "outputs": [
        {
          "components": [
            {
              "internalType": "string",
              "name": "id",
              "type": "string"
            },
            {
              "internalType": "string",
              "name": "name",
              "type": "string"
            },
            {
              "internalType": "address",
              "name": "doctor",
              "type": "address"
            },
            {
              "internalType": "address",
              "name": "patient",
              "type": "address"
            },
            {
              "internalType": "uint256",
              "name": "createdAt",
              "type": "uint256"
            }
          ],
          "internalType": "struct HealthChain.Disease[]",
          "name": "",
          "type": "tuple[]"
        }
      ],
      "stateMutability": "view",
      "type": "function"
    },
    {
      "inputs": [
        {
          "internalType": "string",
          "name": "diseaseId",
          "type": "string"
        }
      ],
      "name": "getRecords",
      "outputs": [
        {
          "components": [
            {
              "internalType": "string",
              "name": "name",
              "type": "string"
            },
            {
              "internalType": "string",
              "name": "url",
              "type": "string"
            },
            {
              "internalType": "string",
              "name": "uploadDate",
              "type": "string"
            }
          ],
          "internalType": "struct HealthChain.Record[]",
          "name": "",
          "type": "tuple[]"
        }
      ],
      "stateMutability": "view",
      "type": "function"
    },
    {
      "inputs": [],
      "name": "getStatus",
      "outputs": [
        {
          "internalType": "string",
          "name": "",
          "type": "string"
        }
      ],
      "stateMutability": "view",
      "type": "function"
    }
  ],
  "bytecode": "0x608060405234801561001057600080fd5b50613805806100206000396000f3fe608060405234801561001057600080fd5b50600436106100a95760003560e01c80637b0f9a36116100715780637b0f9a361461014057806382f7c7971461015e57806386e80b711461017a57806397fd28b3146101aa578063d21bcc1e146101c6578063e73b8165146101e4576100a9565b8063045e4dc6146100ae57806318a231a9146100ca5780633aaa5920146100e85780634e69d560146101065780637862c05d14610124575b600080fd5b6100c860048036038101906100c391906126ba565b610214565b005b6100d2610390565b6040516100df9190612940565b60405180910390f35b6100f061093d565b6040516100fd9190612aaf565b60405180910390f35b61010e610c4b565b60405161011b9190612b1b565b60405180910390f35b61013e60048036038101906101399190612b69565b610df0565b005b610148611151565b6040516101559190612c5e565b60405180910390f35b61017860048036038101906101739190612c80565b61133f565b005b610194600480360381019061018f9190612d3b565b611524565b6040516101a19190612ea4565b60405180910390f35b6101c460048036038101906101bf9190612ec6565b61187d565b005b6101ce611a4f565b6040516101db9190613187565b60405180910390f35b6101fe60048036038101906101f991906131a9565b61214a565b60405161020b9190613315565b60405180910390f35b60405180608001604052808481526020018360ff1681526020013373ffffffffffffffffffffffffffffffffffffffff16815260200182815250600160003373ffffffffffffffffffffffffffffffffffffffff1673ffffffffffffffffffffffffffffffffffffffff16815260200190815260200160002060008201518160000190816102a29190613543565b5060208201518160010160006101000a81548160ff021916908360ff16021790555060408201518160010160016101000a81548173ffffffffffffffffffffffffffffffffffffffff021916908373ffffffffffffffffffffffffffffffffffffffff16021790555060608201518160020190816103209190613543565b5090505060016000803373ffffffffffffffffffffffffffffffffffffffff1673ffffffffffffffffffffffffffffffffffffffff16815260200190815260200160002060006101000a81548160ff0219169083600181111561038657610385613615565b5b0217905550505050565b60606000600260003373ffffffffffffffffffffffffffffffffffffffff1673ffffffffffffffffffffffffffffffffffffffff1681526020019081526020016000206040518060c00160405290816000820180546103ee90613366565b80601f016020809104026020016040519081016040528092919081815260200182805461041a90613366565b80156104675780601f1061043c57610100808354040283529160200191610467565b820191906000526020600020905b81548152906001019060200180831161044a57829003601f168201915b505050505081526020016001820160009054906101000a900460ff1660ff1660ff16815260200160028201805461049d90613366565b80601f01602080910402602001604051908101604052809291908181526020018280546104c990613366565b80156105165780601f106104eb57610100808354040283529160200191610516565b820191906000526020600020905b8154815290600101906020018083116104f957829003601f168201915b505050505081526020016003820160009054906101000a900473ffffffffffffffffffffffffffffffffffffffff1673ffffffffffffffffffffffffffffffffffffffff1673ffffffffffffffffffffffffffffffffffffffff16815260200160048201805461058590613366565b80601f01602080910402602001604051908101604052809291908181526020018280546105b190613366565b80156105fe5780601f106105d3576101008083540402835291602001916105fe565b820191906000526020600020905b8154815290600101906020018083116105e157829003601f168201915b505050505081526020016005820180548060200260200160405190810160405280929190818152602001828054801561068c57602002820191906000526020600020905b8160009054906101000a900473ffffffffffffffffffffffffffffffffffffffff1673ffffffffffffffffffffffffffffffffffffffff1681526020019060010190808311610642575b505050505081525050905060008160a001515167ffffffffffffffff8111156106b8576106b7612556565b5b6040519080825280602002602001820160405280156106f157816020015b6106de6123c2565b8152602001906001900390816106d65790505b50905060005b8260a001515181101561093457600160008460a00151838151811061071f5761071e613644565b5b602002602001015173ffffffffffffffffffffffffffffffffffffffff1673ffffffffffffffffffffffffffffffffffffffff16815260200190815260200160002060405180608001604052908160008201805461077c90613366565b80601f01602080910402602001604051908101604052809291908181526020018280546107a890613366565b80156107f55780601f106107ca576101008083540402835291602001916107f5565b820191906000526020600020905b8154815290600101906020018083116107d857829003601f168201915b505050505081526020016001820160009054906101000a900460ff1660ff1660ff1681526020016001820160019054906101000a900473ffffffffffffffffffffffffffffffffffffffff1673ffffffffffffffffffffffffffffffffffffffff1673ffffffffffffffffffffffffffffffffffffffff16815260200160028201805461088190613366565b80601f01602080910402602001604051908101604052809291908181526020018280546108ad90613366565b80156108fa5780601f106108cf576101008083540402835291602001916108fa565b820191906000526020600020905b8154815290600101906020018083116108dd57829003601f168201915b50505050508152505082828151811061091657610915613644565b5b6020026020010181905250808061092c906136a2565b9150506106f7565b50809250505090565b610945612403565b600260003373ffffffffffffffffffffffffffffffffffffffff1673ffffffffffffffffffffffffffffffffffffffff1681526020019081526020016000206040518060c001604052908160008201805461099f90613366565b80601f01602080910402602001604051908101604052809291908181526020018280546109cb90613366565b8015610a185780601f106109ed57610100808354040283529160200191610a18565b820191906000526020600020905b8154815290600101906020018083116109fb57829003601f168201915b505050505081526020016001820160009054906101000a900460ff1660ff1660ff168152602001600282018054610a4e90613366565b80601f0160208091040260200160405190810160405280929190818152602001828054610a7a90613366565b8015610ac75780601f10610a9c57610100808354040283529160200191610ac7565b820191906000526020600020905b815481529060010190602001808311610aaa57829003601f168201915b505050505081526020016003820160009054906101000a900473ffffffffffffffffffffffffffffffffffffffff1673ffffffffffffffffffffffffffffffffffffffff1673ffffffffffffffffffffffffffffffffffffffff168152602001600482018054610b3690613366565b80601f0160208091040260200160405190810160405280929190818152602001828054610b6290613366565b8015610baf5780601f10610b8457610100808354040283529160200191610baf565b820191906000526020600020905b815481529060010190602001808311610b9257829003601f168201915b5050505050815260200160058201805480602002602001604051908101604052809291908181526020018280548015610c3d57602002820191906000526020600020905b8160009054906101000a900473ffffffffffffffffffffffffffffffffffffffff1673ffffffffffffffffffffffffffffffffffffffff1681526020019060010190808311610bf3575b505050505081525050905090565b606060006001811115610c6157610c60613615565b5b6000803373ffffffffffffffffffffffffffffffffffffffff1673ffffffffffffffffffffffffffffffffffffffff16815260200190815260200160002060009054906101000a900460ff166001811115610cbf57610cbe613615565b5b03610d01576040518060400160405280600681526020017f446f63746f7200000000000000000000000000000000000000000000000000008152509050610ded565b600180811115610d1457610d13613615565b5b6000803373ffffffffffffffffffffffffffffffffffffffff1673ffffffffffffffffffffffffffffffffffffffff16815260200190815260200160002060009054906101000a900460ff166001811115610d7257610d71613615565b5b03610db4576040518060400160405280600781526020017f50617469656e74000000000000000000000000000000000000000000000000008152509050610ded565b6040518060400160405280600c81526020017f556e72656769737465726564000000000000000000000000000000000000000081525090505b90565b600260008273ffffffffffffffffffffffffffffffffffffffff1673ffffffffffffffffffffffffffffffffffffffff168152602001908152602001600020600501339080600181540180825580915050600190039060005260206000200160009091909190916101000a81548173ffffffffffffffffffffffffffffffffffffffff021916908373ffffffffffffffffffffffffffffffffffffffff1602179055506040518060a001604052808481526020018381526020018273ffffffffffffffffffffffffffffffffffffffff1681526020013373ffffffffffffffffffffffffffffffffffffffff16815260200142815250600384604051610ef69190613726565b90815260200160405180910390206000820151816000019081610f199190613543565b506020820151816001019081610f2f9190613543565b5060408201518160020160006101000a81548173ffffffffffffffffffffffffffffffffffffffff021916908373ffffffffffffffffffffffffffffffffffffffff16021790555060608201518160030160006101000a81548173ffffffffffffffffffffffffffffffffffffffff021916908373ffffffffffffffffffffffffffffffffffffffff16021790555060808201518160040155905050600460003373ffffffffffffffffffffffffffffffffffffffff1673ffffffffffffffffffffffffffffffffffffffff1681526020019081526020016000206040518060a001604052808581526020018481526020018373ffffffffffffffffffffffffffffffffffffffff1681526020013373ffffffffffffffffffffffffffffffffffffffff168152602001428152509080600181540180825580915050600190039060005260206000209060050201600090919091909150600082015181600001908161109b9190613543565b5060208201518160010190816110b19190613543565b5060408201518160020160006101000a81548173ffffffffffffffffffffffffffffffffffffffff021916908373ffffffffffffffffffffffffffffffffffffffff16021790555060608201518160030160006101000a81548173ffffffffffffffffffffffffffffffffffffffff021916908373ffffffffffffffffffffffffffffffffffffffff160217905550608082015181600401555050505050565b6111596123c2565b600160003373ffffffffffffffffffffffffffffffffffffffff1673ffffffffffffffffffffffffffffffffffffffff1681526020019081526020016000206040518060800160405290816000820180546111b390613366565b80601f01602080910402602001604051908101604052809291908181526020018280546111df90613366565b801561122c5780601f106112015761010080835404028352916020019161122c565b820191906000526020600020905b81548152906001019060200180831161120f57829003601f168201915b505050505081526020016001820160009054906101000a900460ff1660ff1660ff1681526020016001820160019054906101000a900473ffffffffffffffffffffffffffffffffffffffff1673ffffffffffffffffffffffffffffffffffffffff1673ffffffffffffffffffffffffffffffffffffffff1681526020016002820180546112b890613366565b80601f01602080910402602001604051908101604052809291908181526020018280546112e490613366565b80156113315780601f1061130657610100808354040283529160200191611331565b820191906000526020600020905b81548152906001019060200180831161131457829003601f168201915b505050505081525050905090565b611347612403565b84816000018190525033816060019073ffffffffffffffffffffffffffffffffffffffff16908173ffffffffffffffffffffffffffffffffffffffff168152505083816020019060ff16908160ff168152505082816040018190525081816080018190525080600260003373ffffffffffffffffffffffffffffffffffffffff1673ffffffffffffffffffffffffffffffffffffffff16815260200190815260200160002060008201518160000190816114019190613543565b5060208201518160010160006101000a81548160ff021916908360ff16021790555060408201518160020190816114389190613543565b5060608201518160030160006101000a81548173ffffffffffffffffffffffffffffffffffffffff021916908373ffffffffffffffffffffffffffffffffffffffff16021790555060808201518160040190816114959190613543565b5060a08201518160050190805190602001906114b2929190612452565b5090505060008060003373ffffffffffffffffffffffffffffffffffffffff1673ffffffffffffffffffffffffffffffffffffffff16815260200190815260200160002060006101000a81548160ff0219169083600181111561151857611517613615565b5b02179055505050505050565b60603373ffffffffffffffffffffffffffffffffffffffff1660038360405161154d9190613726565b908152602001604051809103902060020160009054906101000a900473ffffffffffffffffffffffffffffffffffffffff1673ffffffffffffffffffffffffffffffffffffffff16148061160d57503373ffffffffffffffffffffffffffffffffffffffff166003836040516115c39190613726565b908152602001604051809103902060030160009054906101000a900473ffffffffffffffffffffffffffffffffffffffff1673ffffffffffffffffffffffffffffffffffffffff16145b61164c576040517f08c379a0000000000000000000000000000000000000000000000000000000008152600401611643906137af565b60405180910390fd5b60058260405161165c9190613726565b9081526020016040518091039020805480602002602001604051908101604052809291908181526020016000905b8282101561187257838290600052602060002090600302016040518060600160405290816000820180546116bd90613366565b80601f01602080910402602001604051908101604052809291908181526020018280546116e990613366565b80156117365780601f1061170b57610100808354040283529160200191611736565b820191906000526020600020905b81548152906001019060200180831161171957829003601f168201915b5050505050815260200160018201805461174f90613366565b80601f016020809104026020016040519081016040528092919081815260200182805461177b90613366565b80156117c85780601f1061179d576101008083540402835291602001916117c8565b820191906000526020600020905b8154815290600101906020018083116117ab57829003601f168201915b505050505081526020016002820180546117e190613366565b80601f016020809104026020016040519081016040528092919081815260200182805461180d90613366565b801561185a5780601f1061182f5761010080835404028352916020019161185a565b820191906000526020600020905b81548152906001019060200180831161183d57829003601f168201915b5050505050815250508152602001906001019061168a565b505050509050919050565b3373ffffffffffffffffffffffffffffffffffffffff166003826040516118a49190613726565b908152602001604051809103902060020160009054906101000a900473ffffffffffffffffffffffffffffffffffffffff1673ffffffffffffffffffffffffffffffffffffffff16148061196457503373ffffffffffffffffffffffffffffffffffffffff1660038260405161191a9190613726565b908152602001604051809103902060030160009054906101000a900473ffffffffffffffffffffffffffffffffffffffff1673ffffffffffffffffffffffffffffffffffffffff16145b6119a3576040517f08c379a000000000000000000000000000000000000000000000000000000000815260040161199a906137af565b60405180910390fd5b6005816040516119b39190613726565b908152602001604051809103902060405180606001604052808681526020018581526020018481525090806001815401808255809150506001900390600052602060002090600302016000909190919091506000820151816000019081611a1a9190613543565b506020820151816001019081611a309190613543565b506040820151816002019081611a469190613543565b50505050505050565b60606000600460003373ffffffffffffffffffffffffffffffffffffffff1673ffffffffffffffffffffffffffffffffffffffff168152602001908152602001600020805480602002602001604051908101604052809291908181526020016000905b82821015611cbe57838290600052602060002090600502016040518060a0016040529081600082018054611ae590613366565b80601f0160208091040260200160405190810160405280929190818152602001828054611b1190613366565b8015611b5e5780601f10611b3357610100808354040283529160200191611b5e565b820191906000526020600020905b815481529060010190602001808311611b4157829003601f168201915b50505050508152602001600182018054611b7790613366565b80601f0160208091040260200160405190810160405280929190818152602001828054611ba390613366565b8015611bf05780601f10611bc557610100808354040283529160200191611bf0565b820191906000526020600020905b815481529060010190602001808311611bd357829003601f168201915b505050505081526020016002820160009054906101000a900473ffffffffffffffffffffffffffffffffffffffff1673ffffffffffffffffffffffffffffffffffffffff1673ffffffffffffffffffffffffffffffffffffffff1681526020016003820160009054906101000a900473ffffffffffffffffffffffffffffffffffffffff1673ffffffffffffffffffffffffffffffffffffffff1673ffffffffffffffffffffffffffffffffffffffff16815260200160048201548152505081526020019060010190611ab2565b5050505090506000815167ffffffffffffffff811115611ce157611ce0612556565b5b604051908082528060200260200182016040528015611d1a57816020015b611d076124dc565b815260200190600190039081611cff5790505b50905060005b825181101561214157828181518110611d3c57611d3b613644565b5b602002602001015160000151828281518110611d5b57611d5a613644565b5b602002602001015160000181905250828181518110611d7d57611d7c613644565b5b602002602001015160200151828281518110611d9c57611d9b613644565b5b602002602001015160200181905250828181518110611dbe57611dbd613644565b5b602002602001015160800151828281518110611ddd57611ddc613644565b5b6020026020010151606001818152505060026000848381518110611e0457611e03613644565b5b60200260200101516040015173ffffffffffffffffffffffffffffffffffffffff1673ffffffffffffffffffffffffffffffffffffffff1681526020019081526020016000206040518060c0016040529081600082018054611e6590613366565b80601f0160208091040260200160405190810160405280929190818152602001828054611e9190613366565b8015611ede5780601f10611eb357610100808354040283529160200191611ede565b820191906000526020600020905b815481529060010190602001808311611ec157829003601f168201915b505050505081526020016001820160009054906101000a900460ff1660ff1660ff168152602001600282018054611f1490613366565b80601f0160208091040260200160405190810160405280929190818152602001828054611f4090613366565b8015611f8d5780601f10611f6257610100808354040283529160200191611f8d565b820191906000526020600020905b815481529060010190602001808311611f7057829003601f168201915b505050505081526020016003820160009054906101000a900473ffffffffffffffffffffffffffffffffffffffff1673ffffffffffffffffffffffffffffffffffffffff1673ffffffffffffffffffffffffffffffffffffffff168152602001600482018054611ffc90613366565b80601f016020809104026020016040519081016040528092919081815260200182805461202890613366565b80156120755780601f1061204a57610100808354040283529160200191612075565b820191906000526020600020905b81548152906001019060200180831161205857829003601f168201915b505050505081526020016005820180548060200260200160405190810160405280929190818152602001828054801561210357602002820191906000526020600020905b8160009054906101000a900473ffffffffffffffffffffffffffffffffffffffff1673ffffffffffffffffffffffffffffffffffffffff16815260200190600101908083116120b9575b50505050508152505082828151811061211f5761211e613644565b5b6020026020010151604001819052508080612139906136a2565b915050611d20565b50809250505090565b6060600460008373ffffffffffffffffffffffffffffffffffffffff1673ffffffffffffffffffffffffffffffffffffffff168152602001908152602001600020805480602002602001604051908101604052809291908181526020016000905b828210156123b757838290600052602060002090600502016040518060a00160405290816000820180546121de90613366565b80601f016020809104026020016040519081016040528092919081815260200182805461220a90613366565b80156122575780601f1061222c57610100808354040283529160200191612257565b820191906000526020600020905b81548152906001019060200180831161223a57829003601f168201915b5050505050815260200160018201805461227090613366565b80601f016020809104026020016040519081016040528092919081815260200182805461229c90613366565b80156122e95780601f106122be576101008083540402835291602001916122e9565b820191906000526020600020905b8154815290600101906020018083116122cc57829003601f168201915b505050505081526020016002820160009054906101000a900473ffffffffffffffffffffffffffffffffffffffff1673ffffffffffffffffffffffffffffffffffffffff1673ffffffffffffffffffffffffffffffffffffffff1681526020016003820160009054906101000a900473ffffffffffffffffffffffffffffffffffffffff1673ffffffffffffffffffffffffffffffffffffffff1673ffffffffffffffffffffffffffffffffffffffff168152602001600482015481525050815260200190600101906121ab565b505050509050919050565b604051806080016040528060608152602001600060ff168152602001600073ffffffffffffffffffffffffffffffffffffffff168152602001606081525090565b6040518060c0016040528060608152602001600060ff16815260200160608152602001600073ffffffffffffffffffffffffffffffffffffffff16815260200160608152602001606081525090565b8280548282559060005260206000209081019282156124cb579160200282015b828111156124ca5782518260006101000a81548173ffffffffffffffffffffffffffffffffffffffff021916908373ffffffffffffffffffffffffffffffffffffffff16021790555091602001919060010190612472565b5b5090506124d8919061250a565b5090565b604051806080016040528060608152602001606081526020016124fd612403565b8152602001600081525090565b5b8082111561252357600081600090555060010161250b565b5090565b6000604051905090565b600080fd5b600080fd5b600080fd5b600080fd5b6000601f19601f8301169050919050565b7f4e487b7100000000000000000000000000000000000000000000000000000000600052604160045260246000fd5b61258e82612545565b810181811067ffffffffffffffff821117156125ad576125ac612556565b5b80604052505050565b60006125c0612527565b90506125cc8282612585565b919050565b600067ffffffffffffffff8211156125ec576125eb612556565b5b6125f582612545565b9050602081019050919050565b82818337600083830152505050565b600061262461261f846125d1565b6125b6565b9050828152602081018484840111156126405761263f612540565b5b61264b848285612602565b509392505050565b600082601f8301126126685761266761253b565b5b8135612678848260208601612611565b91505092915050565b600060ff82169050919050565b61269781612681565b81146126a257600080fd5b50565b6000813590506126b48161268e565b92915050565b6000806000606084860312156126d3576126d2612531565b5b600084013567ffffffffffffffff8111156126f1576126f0612536565b5b6126fd86828701612653565b935050602061270e868287016126a5565b925050604084013567ffffffffffffffff81111561272f5761272e612536565b5b61273b86828701612653565b9150509250925092565b600081519050919050565b600082825260208201905092915050565b6000819050602082019050919050565b600081519050919050565b600082825260208201905092915050565b60005b838110156127ab578082015181840152602081019050612790565b60008484015250505050565b60006127c282612771565b6127cc818561277c565b93506127dc81856020860161278d565b6127e581612545565b840191505092915050565b6127f981612681565b82525050565b600073ffffffffffffffffffffffffffffffffffffffff82169050919050565b600061282a826127ff565b9050919050565b61283a8161281f565b82525050565b6000608083016000830151848203600086015261285d82826127b7565b915050602083015161287260208601826127f0565b5060408301516128856040860182612831565b506060830151848203606086015261289d82826127b7565b9150508091505092915050565b60006128b68383612840565b905092915050565b6000602082019050919050565b60006128d682612745565b6128e08185612750565b9350836020820285016128f285612761565b8060005b8581101561292e578484038952815161290f85826128aa565b945061291a836128be565b925060208a019950506001810190506128f6565b50829750879550505050505092915050565b6000602082019050818103600083015261295a81846128cb565b905092915050565b600081519050919050565b600082825260208201905092915050565b6000819050602082019050919050565b600061299a8383612831565b60208301905092915050565b6000602082019050919050565b60006129be82612962565b6129c8818561296d565b93506129d38361297e565b8060005b83811015612a045781516129eb888261298e565b97506129f6836129a6565b9250506001810190506129d7565b5085935050505092915050565b600060c0830160008301518482036000860152612a2e82826127b7565b9150506020830151612a4360208601826127f0565b5060408301518482036040860152612a5b82826127b7565b9150506060830151612a706060860182612831565b5060808301518482036080860152612a8882826127b7565b91505060a083015184820360a0860152612aa282826129b3565b9150508091505092915050565b60006020820190508181036000830152612ac98184612a11565b905092915050565b600082825260208201905092915050565b6000612aed82612771565b612af78185612ad1565b9350612b0781856020860161278d565b612b1081612545565b840191505092915050565b60006020820190508181036000830152612b358184612ae2565b905092915050565b612b468161281f565b8114612b5157600080fd5b50565b600081359050612b6381612b3d565b92915050565b600080600060608486031215612b8257612b81612531565b5b600084013567ffffffffffffffff811115612ba057612b9f612536565b5b612bac86828701612653565b935050602084013567ffffffffffffffff811115612bcd57612bcc612536565b5b612bd986828701612653565b9250506040612bea86828701612b54565b9150509250925092565b60006080830160008301518482036000860152612c1182826127b7565b9150506020830151612c2660208601826127f0565b506040830151612c396040860182612831565b5060608301518482036060860152612c5182826127b7565b9150508091505092915050565b60006020820190508181036000830152612c788184612bf4565b905092915050565b60008060008060808587031215612c9a57612c99612531565b5b600085013567ffffffffffffffff811115612cb857612cb7612536565b5b612cc487828801612653565b9450506020612cd5878288016126a5565b935050604085013567ffffffffffffffff811115612cf657612cf5612536565b5b612d0287828801612653565b925050606085013567ffffffffffffffff811115612d2357612d22612536565b5b612d2f87828801612653565b91505092959194509250565b600060208284031215612d5157612d50612531565b5b600082013567ffffffffffffffff811115612d6f57612d6e612536565b5b612d7b84828501612653565b91505092915050565b600081519050919050565b600082825260208201905092915050565b6000819050602082019050919050565b60006060830160008301518482036000860152612dcd82826127b7565b91505060208301518482036020860152612de782826127b7565b91505060408301518482036040860152612e0182826127b7565b9150508091505092915050565b6000612e1a8383612db0565b905092915050565b6000602082019050919050565b6000612e3a82612d84565b612e448185612d8f565b935083602082028501612e5685612da0565b8060005b85811015612e925784840389528151612e738582612e0e565b9450612e7e83612e22565b925060208a01995050600181019050612e5a565b50829750879550505050505092915050565b60006020820190508181036000830152612ebe8184612e2f565b905092915050565b60008060008060808587031215612ee057612edf612531565b5b600085013567ffffffffffffffff811115612efe57612efd612536565b5b612f0a87828801612653565b945050602085013567ffffffffffffffff811115612f2b57612f2a612536565b5b612f3787828801612653565b935050604085013567ffffffffffffffff811115612f5857612f57612536565b5b612f6487828801612653565b925050606085013567ffffffffffffffff811115612f8557612f84612536565b5b612f9187828801612653565b91505092959194509250565b600081519050919050565b600082825260208201905092915050565b6000819050602082019050919050565b600060c0830160008301518482036000860152612fe682826127b7565b9150506020830151612ffb60208601826127f0565b506040830151848203604086015261301382826127b7565b91505060608301516130286060860182612831565b506080830151848203608086015261304082826127b7565b91505060a083015184820360a086015261305a82826129b3565b9150508091505092915050565b6000819050919050565b61307a81613067565b82525050565b6000608083016000830151848203600086015261309d82826127b7565b915050602083015184820360208601526130b782826127b7565b915050604083015184820360408601526130d18282612fc9565b91505060608301516130e66060860182613071565b508091505092915050565b60006130fd8383613080565b905092915050565b6000602082019050919050565b600061311d82612f9d565b6131278185612fa8565b93508360208202850161313985612fb9565b8060005b85811015613175578484038952815161315685826130f1565b945061316183613105565b925060208a0199505060018101905061313d565b50829750879550505050505092915050565b600060208201905081810360008301526131a18184613112565b905092915050565b6000602082840312156131bf576131be612531565b5b60006131cd84828501612b54565b91505092915050565b600081519050919050565b600082825260208201905092915050565b6000819050602082019050919050565b600060a083016000830151848203600086015261321f82826127b7565b9150506020830151848203602086015261323982826127b7565b915050604083015161324e6040860182612831565b5060608301516132616060860182612831565b5060808301516132746080860182613071565b508091505092915050565b600061328b8383613202565b905092915050565b6000602082019050919050565b60006132ab826131d6565b6132b581856131e1565b9350836020820285016132c7856131f2565b8060005b8581101561330357848403895281516132e4858261327f565b94506132ef83613293565b925060208a019950506001810190506132cb565b50829750879550505050505092915050565b6000602082019050818103600083015261332f81846132a0565b905092915050565b7f4e487b7100000000000000000000000000000000000000000000000000000000600052602260045260246000fd5b6000600282049050600182168061337e57607f821691505b60208210810361339157613390613337565b5b50919050565b60008190508160005260206000209050919050565b60006020601f8301049050919050565b600082821b905092915050565b6000600883026133f97fffffffffffffffffffffffffffffffffffffffffffffffffffffffffffffffff826133bc565b61340386836133bc565b95508019841693508086168417925050509392505050565b6000819050919050565b600061344061343b61343684613067565b61341b565b613067565b9050919050565b6000819050919050565b61345a83613425565b61346e61346682613447565b8484546133c9565b825550505050565b600090565b613483613476565b61348e818484613451565b505050565b5b818110156134b2576134a760008261347b565b600181019050613494565b5050565b601f8211156134f7576134c881613397565b6134d1846133ac565b810160208510156134e0578190505b6134f46134ec856133ac565b830182613493565b50505b505050565b600082821c905092915050565b600061351a600019846008026134fc565b1980831691505092915050565b60006135338383613509565b9150826002028217905092915050565b61354c82612771565b67ffffffffffffffff81111561356557613564612556565b5b61356f8254613366565b61357a8282856134b6565b600060209050601f8311600181146135ad576000841561359b578287015190505b6135a58582613527565b86555061360d565b601f1984166135bb86613397565b60005b828110156135e3578489015182556001820191506020850194506020810190506135be565b8683101561360057848901516135fc601f891682613509565b8355505b6001600288020188555050505b505050505050565b7f4e487b7100000000000000000000000000000000000000000000000000000000600052602160045260246000fd5b7f4e487b7100000000000000000000000000000000000000000000000000000000600052603260045260246000fd5b7f4e487b7100000000000000000000000000000000000000000000000000000000600052601160045260246000fd5b60006136ad82613067565b91507fffffffffffffffffffffffffffffffffffffffffffffffffffffffffffffffff82036136df576136de613673565b5b600182019050919050565b600081905092915050565b600061370082612771565b61370a81856136ea565b935061371a81856020860161278d565b80840191505092915050565b600061373282846136f5565b915081905092915050565b7f556e617574686f72697a65642061636365737320746f2064697365617365207260008201527f65636f7264730000000000000000000000000000000000000000000000000000602082015250565b6000613799602683612ad1565b91506137a48261373d565b604082019050919050565b600060208201905081810360008301526137c88161378c565b905091905056fea26469706673582212205a4c96a84f71ba846aa37f087a1bb0027279a90f9a535acef70ad7b1b8fb962464736f6c63430008150033",
  "linkReferences": {},
  "deployedLinkReferences": {}
}